{
  "contractName": "QVVoting",
  "abi": [
    {
      "inputs": [
        {
          "internalType": "contract LoyaltyToken",
          "name": "_addressOfLoyalyTokenContract",
          "type": "address"
        }
      ],
      "payable": false,
      "stateMutability": "nonpayable",
      "type": "constructor"
    },
    {
      "anonymous": false,
      "inputs": [
        {
          "indexed": true,
          "internalType": "address",
          "name": "account",
          "type": "address"
        }
      ],
      "name": "MinterAdded",
      "type": "event"
    },
    {
      "anonymous": false,
      "inputs": [
        {
          "indexed": true,
          "internalType": "address",
          "name": "account",
          "type": "address"
        }
      ],
      "name": "MinterRemoved",
      "type": "event"
    },
    {
      "anonymous": false,
      "inputs": [
        {
          "indexed": true,
          "internalType": "address",
          "name": "previousOwner",
          "type": "address"
        },
        {
          "indexed": true,
          "internalType": "address",
          "name": "newOwner",
          "type": "address"
        }
      ],
      "name": "OwnershipTransferred",
      "type": "event"
    },
    {
      "anonymous": false,
      "inputs": [
        {
          "indexed": false,
          "internalType": "address",
          "name": "creator",
          "type": "address"
        },
        {
          "indexed": false,
          "internalType": "uint256",
          "name": "ProposalID",
          "type": "uint256"
        },
        {
          "indexed": false,
          "internalType": "string",
          "name": "description",
          "type": "string"
        },
        {
          "indexed": false,
          "internalType": "uint256",
          "name": "votingTimeInHours",
          "type": "uint256"
        }
      ],
      "name": "ProposalCreated",
      "type": "event"
    },
    {
      "anonymous": false,
      "inputs": [
        {
          "indexed": false,
          "internalType": "address",
          "name": "voter",
          "type": "address"
        },
        {
          "indexed": false,
          "internalType": "uint256",
          "name": "ProposalID",
          "type": "uint256"
        },
        {
          "indexed": false,
          "internalType": "uint256",
          "name": "weight",
          "type": "uint256"
        }
      ],
      "name": "VoteCasted",
      "type": "event"
    },
    {
      "constant": true,
      "inputs": [],
      "name": "ProposalCount",
      "outputs": [
        {
          "internalType": "uint256",
          "name": "",
          "type": "uint256"
        }
      ],
      "payable": false,
      "stateMutability": "view",
      "type": "function"
    },
    {
      "constant": true,
      "inputs": [
        {
          "internalType": "uint256",
          "name": "",
          "type": "uint256"
        }
      ],
      "name": "Proposals",
      "outputs": [
        {
          "internalType": "address",
          "name": "creator",
          "type": "address"
        },
        {
          "internalType": "enum QVVoting.ProposalStatus",
          "name": "status",
          "type": "uint8"
        },
        {
          "internalType": "uint256",
          "name": "yesVotes",
          "type": "uint256"
        },
        {
          "internalType": "uint256",
          "name": "noVotes",
          "type": "uint256"
        },
        {
          "internalType": "string",
          "name": "description",
          "type": "string"
        },
        {
          "internalType": "uint256",
          "name": "expirationTime",
          "type": "uint256"
        }
      ],
      "payable": false,
      "stateMutability": "view",
      "type": "function"
    },
    {
      "constant": false,
      "inputs": [
        {
          "internalType": "address",
          "name": "account",
          "type": "address"
        }
      ],
      "name": "addMinter",
      "outputs": [],
      "payable": false,
      "stateMutability": "nonpayable",
      "type": "function"
    },
    {
      "constant": true,
      "inputs": [
        {
          "internalType": "address",
          "name": "account",
          "type": "address"
        }
      ],
      "name": "isMinter",
      "outputs": [
        {
          "internalType": "bool",
          "name": "",
          "type": "bool"
        }
      ],
      "payable": false,
      "stateMutability": "view",
      "type": "function"
    },
    {
      "constant": true,
      "inputs": [],
      "name": "isOwner",
      "outputs": [
        {
          "internalType": "bool",
          "name": "",
          "type": "bool"
        }
      ],
      "payable": false,
      "stateMutability": "view",
      "type": "function"
    },
    {
      "constant": true,
      "inputs": [],
      "name": "loyaltyToken",
      "outputs": [
        {
          "internalType": "contract LoyaltyToken",
          "name": "",
          "type": "address"
        }
      ],
      "payable": false,
      "stateMutability": "view",
      "type": "function"
    },
    {
      "constant": true,
      "inputs": [],
      "name": "name",
      "outputs": [
        {
          "internalType": "string",
          "name": "",
          "type": "string"
        }
      ],
      "payable": false,
      "stateMutability": "view",
      "type": "function"
    },
    {
      "constant": true,
      "inputs": [],
      "name": "owner",
      "outputs": [
        {
          "internalType": "address",
          "name": "",
          "type": "address"
        }
      ],
      "payable": false,
      "stateMutability": "view",
      "type": "function"
    },
    {
      "constant": false,
      "inputs": [],
      "name": "renounceMinter",
      "outputs": [],
      "payable": false,
      "stateMutability": "nonpayable",
      "type": "function"
    },
    {
      "constant": false,
      "inputs": [],
      "name": "renounceOwnership",
      "outputs": [],
      "payable": false,
      "stateMutability": "nonpayable",
      "type": "function"
    },
    {
      "constant": true,
      "inputs": [],
      "name": "symbol",
      "outputs": [
        {
          "internalType": "string",
          "name": "",
          "type": "string"
        }
      ],
      "payable": false,
      "stateMutability": "view",
      "type": "function"
    },
    {
      "constant": false,
      "inputs": [
        {
          "internalType": "address",
          "name": "newOwner",
          "type": "address"
        }
      ],
      "name": "transferOwnership",
      "outputs": [],
      "payable": false,
      "stateMutability": "nonpayable",
      "type": "function"
    },
    {
      "constant": false,
      "inputs": [
        {
          "internalType": "string",
          "name": "_description",
          "type": "string"
        },
        {
          "internalType": "uint256",
          "name": "_voteExpirationTime",
          "type": "uint256"
        }
      ],
      "name": "createProposal",
      "outputs": [
        {
          "internalType": "uint256",
          "name": "",
          "type": "uint256"
        }
      ],
      "payable": false,
      "stateMutability": "nonpayable",
      "type": "function"
    },
    {
      "constant": false,
      "inputs": [
        {
          "internalType": "uint256",
          "name": "_ProposalID",
          "type": "uint256"
        }
      ],
      "name": "setProposalToTally",
      "outputs": [],
      "payable": false,
      "stateMutability": "nonpayable",
      "type": "function"
    },
    {
      "constant": false,
      "inputs": [
        {
          "internalType": "uint256",
          "name": "_ProposalID",
          "type": "uint256"
        }
      ],
      "name": "setProposalToEnded",
      "outputs": [],
      "payable": false,
      "stateMutability": "nonpayable",
      "type": "function"
    },
    {
      "constant": true,
      "inputs": [
        {
          "internalType": "uint256",
          "name": "_ProposalID",
          "type": "uint256"
        }
      ],
      "name": "getProposalStatus",
      "outputs": [
        {
          "internalType": "enum QVVoting.ProposalStatus",
          "name": "",
          "type": "uint8"
        }
      ],
      "payable": false,
      "stateMutability": "view",
      "type": "function"
    },
    {
      "constant": true,
      "inputs": [
        {
          "internalType": "uint256",
          "name": "_ProposalID",
          "type": "uint256"
        }
      ],
      "name": "getProposalExpirationTime",
      "outputs": [
        {
          "internalType": "uint256",
          "name": "",
          "type": "uint256"
        }
      ],
      "payable": false,
      "stateMutability": "view",
      "type": "function"
    },
    {
      "constant": true,
      "inputs": [
        {
          "internalType": "uint256",
          "name": "_ProposalID",
          "type": "uint256"
        }
      ],
      "name": "countVotes",
      "outputs": [
        {
          "internalType": "uint256",
          "name": "",
          "type": "uint256"
        },
        {
          "internalType": "uint256",
          "name": "",
          "type": "uint256"
        }
      ],
      "payable": false,
      "stateMutability": "view",
      "type": "function"
    },
    {
      "constant": false,
      "inputs": [
        {
          "internalType": "uint256",
          "name": "_ProposalID",
          "type": "uint256"
        },
        {
          "internalType": "uint256",
          "name": "numTokens",
          "type": "uint256"
        },
        {
          "internalType": "bool",
          "name": "_vote",
          "type": "bool"
        }
      ],
      "name": "castVote",
      "outputs": [],
      "payable": false,
      "stateMutability": "nonpayable",
      "type": "function"
    },
    {
      "constant": false,
      "inputs": [
        {
          "internalType": "address",
          "name": "account",
          "type": "address"
        },
        {
          "internalType": "uint256",
          "name": "amount",
          "type": "uint256"
        }
      ],
      "name": "mint",
      "outputs": [],
      "payable": false,
      "stateMutability": "nonpayable",
      "type": "function"
    },
    {
      "constant": true,
      "inputs": [
        {
          "internalType": "address",
          "name": "account",
          "type": "address"
        }
      ],
      "name": "balanceOf",
      "outputs": [
        {
          "internalType": "uint256",
          "name": "",
          "type": "uint256"
        }
      ],
      "payable": false,
      "stateMutability": "view",
      "type": "function"
    }
  ],
  "bytecode": "0x6080604052670de0b6b3a764000060075561dead600860006101000a81548173ffffffffffffffffffffffffffffffffffffffff021916908373ffffffffffffffffffffffffffffffffffffffff1602179055503480156200006057600080fd5b5060405162002d0d38038062002d0d833981810160405260208110156200008657600080fd5b8101908080519060200190929190505050336000806101000a81548173ffffffffffffffffffffffffffffffffffffffff021916908373ffffffffffffffffffffffffffffffffffffffff1602179055506000809054906101000a900473ffffffffffffffffffffffffffffffffffffffff1673ffffffffffffffffffffffffffffffffffffffff16600073ffffffffffffffffffffffffffffffffffffffff167f8be0079c531659141344cd1fd0a4f28419497f9722a3daafe3b4186f6b6457e060405160405180910390a362000164336200024860201b60201c565b80600660006101000a81548173ffffffffffffffffffffffffffffffffffffffff021916908373ffffffffffffffffffffffffffffffffffffffff1602179055506040518060400160405280600381526020017f515656000000000000000000000000000000000000000000000000000000000081525060039080519060200190620001f29291906200046d565b506040518060400160405280600981526020017f515620566f74696e67000000000000000000000000000000000000000000000081525060049080519060200190620002409291906200046d565b50506200051c565b62000263816001620002a960201b620024671790919060201c565b8073ffffffffffffffffffffffffffffffffffffffff167f6ae172837ea30b801fbfcdd4108aa1d5bf8ff775444fd70256b44e6bf3dfc3f660405160405180910390a250565b620002bb82826200038d60201b60201c565b156200032f576040517f08c379a000000000000000000000000000000000000000000000000000000000815260040180806020018281038252601f8152602001807f526f6c65733a206163636f756e7420616c72656164792068617320726f6c650081525060200191505060405180910390fd5b60018260000160008373ffffffffffffffffffffffffffffffffffffffff1673ffffffffffffffffffffffffffffffffffffffff16815260200190815260200160002060006101000a81548160ff0219169083151502179055505050565b60008073ffffffffffffffffffffffffffffffffffffffff168273ffffffffffffffffffffffffffffffffffffffff16141562000416576040517f08c379a000000000000000000000000000000000000000000000000000000000815260040180806020018281038252602281526020018062002ceb6022913960400191505060405180910390fd5b8260000160008373ffffffffffffffffffffffffffffffffffffffff1673ffffffffffffffffffffffffffffffffffffffff16815260200190815260200160002060009054906101000a900460ff16905092915050565b828054600181600116156101000203166002900490600052602060002090601f016020900481019282601f10620004b057805160ff1916838001178555620004e1565b82800160010185558215620004e1579182015b82811115620004e0578251825591602001919060010190620004c3565b5b509050620004f09190620004f4565b5090565b6200051991905b8082111562000515576000816000905550600101620004fb565b5090565b90565b6127bf806200052c6000396000f3fe608060405234801561001057600080fd5b50600436106101375760003560e01c8063770aa84d116100b8578063986502751161007c57806398650275146105ba578063aa271e1a146105c4578063be747c1c14610620578063d1dbe7d81461063e578063f2fde38b14610742578063f9000ba81461078657610137565b8063770aa84d1461043d5780638da5cb5b146104875780638f32d59b146104d157806395d89b41146104f3578063983b2d561461057657610137565b806340c10f19116100ff57806340c10f191461031d5780634c3bd9d61461036b5780634d5f9eba1461039957806370a08231146103db578063715018a61461043357610137565b806306fdde031461013c5780631840f0ca146101bf5780632d5e9d291461020857806335facf7814610236578063401853b7146102cd575b600080fd5b6101446107ca565b6040518080602001828103825283818151815260200191508051906020019080838360005b83811015610184578082015181840152602081019050610169565b50505050905090810190601f1680156101b15780820380516001836020036101000a031916815260200191505b509250505060405180910390f35b6101eb600480360360208110156101d557600080fd5b8101908080359060200190929190505050610868565b604051808381526020018281526020019250505060405180910390f35b6102346004803603602081101561021e57600080fd5b8101908080359060200190929190505050610a3a565b005b6102b76004803603604081101561024c57600080fd5b810190808035906020019064010000000081111561026957600080fd5b82018360208201111561027b57600080fd5b8035906020019184600183028401116401000000008311171561029d57600080fd5b909192939192939080359060200190929190505050610ca2565b6040518082815260200191505060405180910390f35b6102f9600480360360208110156102e357600080fd5b8101908080359060200190929190505050610f03565b6040518082600281111561030957fe5b60ff16815260200191505060405180910390f35b6103696004803603604081101561033357600080fd5b81019080803573ffffffffffffffffffffffffffffffffffffffff16906020019092919080359060200190929190505050610fb6565b005b6103976004803603602081101561038157600080fd5b8101908080359060200190929190505050611331565b005b6103c5600480360360208110156103af57600080fd5b8101908080359060200190929190505050611599565b6040518082815260200191505060405180910390f35b61041d600480360360208110156103f157600080fd5b81019080803573ffffffffffffffffffffffffffffffffffffffff16906020019092919050505061163f565b6040518082815260200191505060405180910390f35b61043b611688565b005b6104456117c1565b604051808273ffffffffffffffffffffffffffffffffffffffff1673ffffffffffffffffffffffffffffffffffffffff16815260200191505060405180910390f35b61048f6117e7565b604051808273ffffffffffffffffffffffffffffffffffffffff1673ffffffffffffffffffffffffffffffffffffffff16815260200191505060405180910390f35b6104d9611810565b604051808215151515815260200191505060405180910390f35b6104fb611867565b6040518080602001828103825283818151815260200191508051906020019080838360005b8381101561053b578082015181840152602081019050610520565b50505050905090810190601f1680156105685780820380516001836020036101000a031916815260200191505b509250505060405180910390f35b6105b86004803603602081101561058c57600080fd5b81019080803573ffffffffffffffffffffffffffffffffffffffff169060200190929190505050611905565b005b6105c261196f565b005b610606600480360360208110156105da57600080fd5b81019080803573ffffffffffffffffffffffffffffffffffffffff16906020019092919050505061197a565b604051808215151515815260200191505060405180910390f35b610628611997565b6040518082815260200191505060405180910390f35b61066a6004803603602081101561065457600080fd5b810190808035906020019092919050505061199d565b604051808773ffffffffffffffffffffffffffffffffffffffff1673ffffffffffffffffffffffffffffffffffffffff1681526020018660028111156106ac57fe5b60ff16815260200185815260200184815260200180602001838152602001828103825284818151815260200191508051906020019080838360005b838110156107025780820151818401526020810190506106e7565b50505050905090810190601f16801561072f5780820380516001836020036101000a031916815260200191505b5097505050505050505060405180910390f35b6107846004803603602081101561075857600080fd5b81019080803573ffffffffffffffffffffffffffffffffffffffff169060200190929190505050611a9e565b005b6107c86004803603606081101561079c57600080fd5b810190808035906020019092919080359060200190929190803515159060200190929190505050611b24565b005b60048054600181600116156101000203166002900480601f0160208091040260200160405190810160405280929190818152602001828054600181600116156101000203166002900480156108605780601f1061083557610100808354040283529160200191610860565b820191906000526020600020905b81548152906001019060200180831161084357829003601f168201915b505050505081565b6000806000809050600080905060606009600087815260200190815260200160002060040180548060200260200160405190810160405280929190818152602001828054801561090d57602002820191906000526020600020905b8160009054906101000a900473ffffffffffffffffffffffffffffffffffffffff1673ffffffffffffffffffffffffffffffffffffffff16815260200190600101908083116108c3575b5050505050905060008090505b8151811015610a2b57600082828151811061093157fe5b602002602001015190506000600960008a815260200190815260200160002060060160008373ffffffffffffffffffffffffffffffffffffffff1673ffffffffffffffffffffffffffffffffffffffff16815260200190815260200160002060000160019054906101000a900460ff1690506000600960008b815260200190815260200160002060060160008473ffffffffffffffffffffffffffffffffffffffff1673ffffffffffffffffffffffffffffffffffffffff168152602001908152602001600020600101549050600115158215151415610a15578087019650610a1b565b80860195505b505050808060010191505061091a565b50828294509450505050915091565b80600081118015610a4d5750600a548111155b610abf576040517f08c379a00000000000000000000000000000000000000000000000000000000081526004018080602001828103825260178152602001807f4e6f7420612076616c69642050726f706f73616c20496400000000000000000081525060200191505060405180910390fd5b610ac7611810565b610b39576040517f08c379a00000000000000000000000000000000000000000000000000000000081526004018080602001828103825260208152602001807f4f776e61626c653a2063616c6c6572206973206e6f7420746865206f776e657281525060200191505060405180910390fd5b60006002811115610b4657fe5b6009600084815260200190815260200160002060000160149054906101000a900460ff166002811115610b7557fe5b14610be8576040517f08c379a00000000000000000000000000000000000000000000000000000000081526004018080602001828103825260178152602001807f566f7465206973206e6f7420696e2070726f677265737300000000000000000081525060200191505060405180910390fd5b610bf182611599565b421015610c66576040517f08c379a000000000000000000000000000000000000000000000000000000000815260040180806020018281038252601d8152602001807f766f74696e6720706572696f6420686173206e6f74206578706972656400000081525060200191505060405180910390fd5b60016009600084815260200190815260200160002060000160146101000a81548160ff02191690836002811115610c9957fe5b02179055505050565b6000610cac611810565b610d1e576040517f08c379a00000000000000000000000000000000000000000000000000000000081526004018080602001828103825260208152602001807f4f776e61626c653a2063616c6c6572206973206e6f7420746865206f776e657281525060200191505060405180910390fd5b60008211610d94576040517f08c379a000000000000000000000000000000000000000000000000000000000815260040180806020018281038252601d8152602001807f54686520766f74696e6720706572696f642063616e6e6f74206265203000000081525060200191505060405180910390fd5b600a60008154809291906001019190505550600060096000600a5481526020019081526020016000209050338160000160006101000a81548173ffffffffffffffffffffffffffffffffffffffff021916908373ffffffffffffffffffffffffffffffffffffffff16021790555060008160000160146101000a81548160ff02191690836002811115610e2357fe5b0217905550600183603c0202420181600501819055508484826003019190610e4c9291906125ff565b507f781e930fda5896dda55b0c20f29c285b9bedfb112a3a6456d12c63b278537ae033600a54878787604051808673ffffffffffffffffffffffffffffffffffffffff1673ffffffffffffffffffffffffffffffffffffffff168152602001858152602001806020018381526020018281038252858582818152602001925080828437600081840152601f19601f820116905080830192505050965050505050505060405180910390a1600a549150509392505050565b600081600081118015610f185750600a548111155b610f8a576040517f08c379a00000000000000000000000000000000000000000000000000000000081526004018080602001828103825260178152602001807f4e6f7420612076616c69642050726f706f73616c20496400000000000000000081525060200191505060405180910390fd5b6009600084815260200190815260200160002060000160149054906101000a900460ff16915050919050565b600073ffffffffffffffffffffffffffffffffffffffff168273ffffffffffffffffffffffffffffffffffffffff161415611059576040517f08c379a00000000000000000000000000000000000000000000000000000000081526004018080602001828103825260198152602001807f206d696e7420746f20746865207a65726f20616464726573730000000000000081525060200191505060405180910390fd5b6007548110156110d1576040517f08c379a00000000000000000000000000000000000000000000000000000000081526004018080602001828103825260168152602001807f204d696e69756d20766f7465206f6e6520746f6b656e0000000000000000000081525060200191505060405180910390fd5b600660009054906101000a900473ffffffffffffffffffffffffffffffffffffffff1673ffffffffffffffffffffffffffffffffffffffff166323b872dd33600860009054906101000a900473ffffffffffffffffffffffffffffffffffffffff16846040518463ffffffff1660e01b8152600401808473ffffffffffffffffffffffffffffffffffffffff1673ffffffffffffffffffffffffffffffffffffffff1681526020018373ffffffffffffffffffffffffffffffffffffffff1673ffffffffffffffffffffffffffffffffffffffff1681526020018281526020019350505050602060405180830381600087803b1580156111d057600080fd5b505af11580156111e4573d6000803e3d6000fd5b505050506040513d60208110156111fa57600080fd5b810190808051906020019092919050505061127d576040517f08c379a000000000000000000000000000000000000000000000000000000000815260040180806020018281038252601d8152602001807f4c6f79616c747920546f6b656e207472616e73666572206661696c656400000081525060200191505060405180910390fd5b61129281600254611f4790919063ffffffff16565b6002819055506112ea81600560008573ffffffffffffffffffffffffffffffffffffffff1673ffffffffffffffffffffffffffffffffffffffff16815260200190815260200160002054611f4790919063ffffffff16565b600560008473ffffffffffffffffffffffffffffffffffffffff1673ffffffffffffffffffffffffffffffffffffffff168152602001908152602001600020819055505050565b806000811180156113445750600a548111155b6113b6576040517f08c379a00000000000000000000000000000000000000000000000000000000081526004018080602001828103825260178152602001807f4e6f7420612076616c69642050726f706f73616c20496400000000000000000081525060200191505060405180910390fd5b6113be611810565b611430576040517f08c379a00000000000000000000000000000000000000000000000000000000081526004018080602001828103825260208152602001807f4f776e61626c653a2063616c6c6572206973206e6f7420746865206f776e657281525060200191505060405180910390fd5b6001600281111561143d57fe5b6009600084815260200190815260200160002060000160149054906101000a900460ff16600281111561146c57fe5b146114df576040517f08c379a000000000000000000000000000000000000000000000000000000000815260040180806020018281038252601b8152602001807f50726f706f73616c2073686f756c6420626520696e2074616c6c79000000000081525060200191505060405180910390fd5b6114e882611599565b42101561155d576040517f08c379a000000000000000000000000000000000000000000000000000000000815260040180806020018281038252601d8152602001807f766f74696e6720706572696f6420686173206e6f74206578706972656400000081525060200191505060405180910390fd5b60026009600084815260200190815260200160002060000160146101000a81548160ff0219169083600281111561159057fe5b02179055505050565b6000816000811180156115ae5750600a548111155b611620576040517f08c379a00000000000000000000000000000000000000000000000000000000081526004018080602001828103825260178152602001807f4e6f7420612076616c69642050726f706f73616c20496400000000000000000081525060200191505060405180910390fd5b6009600084815260200190815260200160002060050154915050919050565b6000600560008373ffffffffffffffffffffffffffffffffffffffff1673ffffffffffffffffffffffffffffffffffffffff168152602001908152602001600020549050919050565b611690611810565b611702576040517f08c379a00000000000000000000000000000000000000000000000000000000081526004018080602001828103825260208152602001807f4f776e61626c653a2063616c6c6572206973206e6f7420746865206f776e657281525060200191505060405180910390fd5b600073ffffffffffffffffffffffffffffffffffffffff166000809054906101000a900473ffffffffffffffffffffffffffffffffffffffff1673ffffffffffffffffffffffffffffffffffffffff167f8be0079c531659141344cd1fd0a4f28419497f9722a3daafe3b4186f6b6457e060405160405180910390a360008060006101000a81548173ffffffffffffffffffffffffffffffffffffffff021916908373ffffffffffffffffffffffffffffffffffffffff160217905550565b600660009054906101000a900473ffffffffffffffffffffffffffffffffffffffff1681565b60008060009054906101000a900473ffffffffffffffffffffffffffffffffffffffff16905090565b60008060009054906101000a900473ffffffffffffffffffffffffffffffffffffffff1673ffffffffffffffffffffffffffffffffffffffff163373ffffffffffffffffffffffffffffffffffffffff1614905090565b60038054600181600116156101000203166002900480601f0160208091040260200160405190810160405280929190818152602001828054600181600116156101000203166002900480156118fd5780601f106118d2576101008083540402835291602001916118fd565b820191906000526020600020905b8154815290600101906020018083116118e057829003601f168201915b505050505081565b61190e3361197a565b611963576040517f08c379a00000000000000000000000000000000000000000000000000000000081526004018080602001828103825260308152602001806126cb6030913960400191505060405180910390fd5b61196c81611fcf565b50565b61197833612029565b565b600061199082600161208390919063ffffffff16565b9050919050565b600a5481565b60096020528060005260406000206000915090508060000160009054906101000a900473ffffffffffffffffffffffffffffffffffffffff16908060000160149054906101000a900460ff1690806001015490806002015490806003018054600181600116156101000203166002900480601f016020809104026020016040519081016040528092919081815260200182805460018160011615610100020316600290048015611a8e5780601f10611a6357610100808354040283529160200191611a8e565b820191906000526020600020905b815481529060010190602001808311611a7157829003601f168201915b5050505050908060050154905086565b611aa6611810565b611b18576040517f08c379a00000000000000000000000000000000000000000000000000000000081526004018080602001828103825260208152602001807f4f776e61626c653a2063616c6c6572206973206e6f7420746865206f776e657281525060200191505060405180910390fd5b611b2181612161565b50565b82600081118015611b375750600a548111155b611ba9576040517f08c379a00000000000000000000000000000000000000000000000000000000081526004018080602001828103825260178152602001807f4e6f7420612076616c69642050726f706f73616c20496400000000000000000081525060200191505060405180910390fd5b60006002811115611bb657fe5b611bbf85610f03565b6002811115611bca57fe5b14611c3d576040517f08c379a00000000000000000000000000000000000000000000000000000000081526004018080602001828103825260158152602001807f70726f706f73616c2068617320657870697265642e000000000000000000000081525060200191505060405180910390fd5b611c4784336122a5565b15611c9d576040517f08c379a00000000000000000000000000000000000000000000000000000000081526004018080602001828103825260238152602001806127686023913960400191505060405180910390fd5b42611ca785611599565b11611cfd576040517f08c379a000000000000000000000000000000000000000000000000000000000815260040180806020018281038252602a81526020018061273e602a913960400191505060405180910390fd5b611d4f83600560003373ffffffffffffffffffffffffffffffffffffffff1673ffffffffffffffffffffffffffffffffffffffff1681526020019081526020016000205461239990919063ffffffff16565b600560003373ffffffffffffffffffffffffffffffffffffffff1673ffffffffffffffffffffffffffffffffffffffff168152602001908152602001600020819055506000611d9d84612422565b9050600060096000878152602001908152602001600020905060405180606001604052806001151581526020018515158152602001838152508160060160003373ffffffffffffffffffffffffffffffffffffffff1673ffffffffffffffffffffffffffffffffffffffff16815260200190815260200160002060008201518160000160006101000a81548160ff02191690831515021790555060208201518160000160016101000a81548160ff02191690831515021790555060408201518160010155905050806004013390806001815401808255809150509060018203906000526020600020016000909192909190916101000a81548173ffffffffffffffffffffffffffffffffffffffff021916908373ffffffffffffffffffffffffffffffffffffffff160217905550507fcb87df07b1c304492bd875a5c8b98672eca500939412809ea229afef1d745188338784604051808473ffffffffffffffffffffffffffffffffffffffff1673ffffffffffffffffffffffffffffffffffffffff168152602001838152602001828152602001935050505060405180910390a1505050505050565b600080828401905083811015611fc5576040517f08c379a000000000000000000000000000000000000000000000000000000000815260040180806020018281038252601b8152602001807f536166654d6174683a206164646974696f6e206f766572666c6f77000000000081525060200191505060405180910390fd5b8091505092915050565b611fe381600161246790919063ffffffff16565b8073ffffffffffffffffffffffffffffffffffffffff167f6ae172837ea30b801fbfcdd4108aa1d5bf8ff775444fd70256b44e6bf3dfc3f660405160405180910390a250565b61203d81600161254290919063ffffffff16565b8073ffffffffffffffffffffffffffffffffffffffff167fe94479a9f7e1952cc78f2d6baab678adc1b772d936c6583def489e524cb6669260405160405180910390a250565b60008073ffffffffffffffffffffffffffffffffffffffff168273ffffffffffffffffffffffffffffffffffffffff16141561210a576040517f08c379a000000000000000000000000000000000000000000000000000000000815260040180806020018281038252602281526020018061271c6022913960400191505060405180910390fd5b8260000160008373ffffffffffffffffffffffffffffffffffffffff1673ffffffffffffffffffffffffffffffffffffffff16815260200190815260200160002060009054906101000a900460ff16905092915050565b600073ffffffffffffffffffffffffffffffffffffffff168173ffffffffffffffffffffffffffffffffffffffff1614156121e7576040517f08c379a00000000000000000000000000000000000000000000000000000000081526004018080602001828103825260268152602001806126a56026913960400191505060405180910390fd5b8073ffffffffffffffffffffffffffffffffffffffff166000809054906101000a900473ffffffffffffffffffffffffffffffffffffffff1673ffffffffffffffffffffffffffffffffffffffff167f8be0079c531659141344cd1fd0a4f28419497f9722a3daafe3b4186f6b6457e060405160405180910390a3806000806101000a81548173ffffffffffffffffffffffffffffffffffffffff021916908373ffffffffffffffffffffffffffffffffffffffff16021790555050565b6000826000811180156122ba5750600a548111155b61232c576040517f08c379a00000000000000000000000000000000000000000000000000000000081526004018080602001828103825260178152602001807f4e6f7420612076616c69642050726f706f73616c20496400000000000000000081525060200191505060405180910390fd5b6009600085815260200190815260200160002060060160008473ffffffffffffffffffffffffffffffffffffffff1673ffffffffffffffffffffffffffffffffffffffff16815260200190815260200160002060000160009054906101000a900460ff1691505092915050565b600082821115612411576040517f08c379a000000000000000000000000000000000000000000000000000000000815260040180806020018281038252601e8152602001807f536166654d6174683a207375627472616374696f6e206f766572666c6f77000081525060200191505060405180910390fd5b600082840390508091505092915050565b6000806002600184018161243257fe5b0490508291505b818110156124615780915060028182858161245057fe5b04018161245957fe5b049050612439565b50919050565b6124718282612083565b156124e4576040517f08c379a000000000000000000000000000000000000000000000000000000000815260040180806020018281038252601f8152602001807f526f6c65733a206163636f756e7420616c72656164792068617320726f6c650081525060200191505060405180910390fd5b60018260000160008373ffffffffffffffffffffffffffffffffffffffff1673ffffffffffffffffffffffffffffffffffffffff16815260200190815260200160002060006101000a81548160ff0219169083151502179055505050565b61254c8282612083565b6125a1576040517f08c379a00000000000000000000000000000000000000000000000000000000081526004018080602001828103825260218152602001806126fb6021913960400191505060405180910390fd5b60008260000160008373ffffffffffffffffffffffffffffffffffffffff1673ffffffffffffffffffffffffffffffffffffffff16815260200190815260200160002060006101000a81548160ff0219169083151502179055505050565b828054600181600116156101000203166002900490600052602060002090601f016020900481019282601f1061264057803560ff191683800117855561266e565b8280016001018555821561266e579182015b8281111561266d578235825591602001919060010190612652565b5b50905061267b919061267f565b5090565b6126a191905b8082111561269d576000816000905550600101612685565b5090565b9056fe4f776e61626c653a206e6577206f776e657220697320746865207a65726f20616464726573734d696e746572526f6c653a2063616c6c657220646f6573206e6f74206861766520746865204d696e74657220726f6c65526f6c65733a206163636f756e7420646f6573206e6f74206861766520726f6c65526f6c65733a206163636f756e7420697320746865207a65726f2061646472657373666f7220746869732070726f706f73616c2c2074686520766f74696e672074696d6520657870697265647573657220616c726561647920766f746564206f6e20746869732070726f706f73616ca265627a7a7231582072a0f1c5af08e0a7146d0fab68e053f87fbf0a943a5d4ef4bb2f26cdb57bbdee64736f6c634300050c0032526f6c65733a206163636f756e7420697320746865207a65726f2061646472657373",
  "source": "pragma solidity >=0.4.25 <0.6.0;\n\nimport \"openzeppelin-solidity/contracts/math/SafeMath.sol\";\nimport \"openzeppelin-solidity/contracts/ownership/Ownable.sol\";\nimport \"openzeppelin-solidity/contracts/access/roles/MinterRole.sol\";\n\ninterface LoyaltyToken \n{\n    function approve(address _spender, uint256 _amount) external returns (bool);\n    function balanceOf(address _ownesr) external view returns (uint256);\n    function faucet(uint256 _amount) external;\n    function transfer(address _to, uint256 _amount) external returns (bool);\n    function transferFrom(address _from, address _to, uint256 _amount) external returns (bool);\n}\n\n/**\n * @title QVVoting\n * @dev the manager for proposals / votes\n */\ncontract QVVoting is Ownable, MinterRole {\n    using SafeMath for uint256;\n\n    uint256 private _totalSupply;\n    string public symbol;\n    string public name;\n    mapping(address => uint256) private _balances;\n\n    LoyaltyToken public loyaltyToken;\n    uint256 oneToken = 10**18;\n    address burnAddress = 0x000000000000000000000000000000000000dEaD;\n\n    event VoteCasted(address voter, uint ProposalID, uint256 weight);\n\n    event ProposalCreated(\n        address creator,\n        uint256 ProposalID,\n        string description,\n        uint votingTimeInHours\n    );\n\n    enum ProposalStatus {IN_PROGRESS, TALLY, ENDED}\n\n    struct Proposal {\n        address creator;\n        ProposalStatus status;\n        uint256 yesVotes;\n        uint256 noVotes;\n        string description;\n        address[] voters;\n        uint expirationTime;\n        mapping(address => Voter) voterInfo;\n    }\n\n    struct Voter {\n        bool hasVoted;\n        bool vote;\n        uint256 weight;\n    }\n\n    mapping(uint256 => Proposal) public Proposals;\n    uint public ProposalCount;\n\n    constructor(LoyaltyToken _addressOfLoyalyTokenContract) public {\n        loyaltyToken = _addressOfLoyalyTokenContract;\n        symbol = \"QVV\";\n        name = \"QV Voting\";\n    }\n\n    /**\n    * @dev Creates a new proposal.\n    * @param _description the text of the proposal\n    * @param _voteExpirationTime expiration time in minutes\n    */\n    function createProposal(\n        string calldata _description,\n        uint _voteExpirationTime\n    ) external onlyOwner returns (uint) {\n        require(_voteExpirationTime > 0, \"The voting period cannot be 0\");\n        ProposalCount++;\n\n        Proposal storage curProposal = Proposals[ProposalCount];\n        curProposal.creator = msg.sender;\n        curProposal.status = ProposalStatus.IN_PROGRESS;\n        curProposal.expirationTime = now + 60 * _voteExpirationTime * 1 seconds;\n        curProposal.description = _description;\n\n        emit ProposalCreated(\n            msg.sender,\n            ProposalCount,\n            _description,\n            _voteExpirationTime\n        );\n        return ProposalCount;\n    }\n\n    /**\n    * @dev sets a proposal to TALLY.\n    * @param _ProposalID the proposal id\n    */\n    function setProposalToTally(uint _ProposalID)\n        external\n        validProposal(_ProposalID)\n        onlyOwner\n    {\n        require(\n            Proposals[_ProposalID].status == ProposalStatus.IN_PROGRESS,\n            \"Vote is not in progress\"\n        );\n        require(\n            now >= getProposalExpirationTime(_ProposalID),\n            \"voting period has not expired\"\n        );\n        Proposals[_ProposalID].status = ProposalStatus.TALLY;\n    }\n\n    /**\n    * @dev sets a proposal to ENDED.\n    * @param _ProposalID the proposal id\n    */\n    function setProposalToEnded(uint _ProposalID)\n        external\n        validProposal(_ProposalID)\n        onlyOwner\n    {\n        require(\n            Proposals[_ProposalID].status == ProposalStatus.TALLY,\n            \"Proposal should be in tally\"\n        );\n        require(\n            now >= getProposalExpirationTime(_ProposalID),\n            \"voting period has not expired\"\n        );\n        Proposals[_ProposalID].status = ProposalStatus.ENDED;\n    }\n\n    /**\n    * @dev returns the status of a proposal\n    * @param _ProposalID the proposal id\n    */\n    function getProposalStatus(uint _ProposalID)\n        public\n        view\n        validProposal(_ProposalID)\n        returns (ProposalStatus)\n    {\n        return Proposals[_ProposalID].status;\n    }\n\n    /**\n    * @dev returns a proposal expiration time\n    * @param _ProposalID the proposal id\n    */\n    function getProposalExpirationTime(uint _ProposalID)\n        public\n        view\n        validProposal(_ProposalID)\n        returns (uint)\n    {\n        return Proposals[_ProposalID].expirationTime;\n    }\n\n    /**\n    * @dev counts the votes for a proposal. Returns (yeays, nays)\n    * @param _ProposalID the proposal id\n    */\n    function countVotes(uint256 _ProposalID) public view returns (uint, uint) {\n        uint yesVotes = 0;\n        uint noVotes = 0;\n\n        address[] memory voters = Proposals[_ProposalID].voters;\n        for (uint i = 0; i < voters.length; i++) {\n            address voter = voters[i];\n            bool vote = Proposals[_ProposalID].voterInfo[voter].vote;\n            uint256 weight = Proposals[_ProposalID].voterInfo[voter].weight;\n            if (vote == true) {\n                yesVotes += weight;\n            } else {\n                noVotes += weight;\n            }\n        }\n\n        return (yesVotes, noVotes);\n\n    }\n\n    /**\n    * @dev casts a vote.\n    * @param _ProposalID the proposal id\n    * @param numTokens number of voice credits\n    * @param _vote true for yes, false for no\n    */\n    function castVote(uint _ProposalID, uint numTokens, bool _vote)\n        external\n        validProposal(_ProposalID)\n    {\n        require(\n            getProposalStatus(_ProposalID) == ProposalStatus.IN_PROGRESS,\n            \"proposal has expired.\"\n        );\n        require(\n            !userHasVoted(_ProposalID, msg.sender),\n            \"user already voted on this proposal\"\n        );\n        require(\n            getProposalExpirationTime(_ProposalID) > now,\n            \"for this proposal, the voting time expired\"\n        );\n\n        _balances[msg.sender] = _balances[msg.sender].sub(numTokens);\n\n        uint256 weight = sqrt(numTokens); // QV Vote\n\n        Proposal storage curproposal = Proposals[_ProposalID];\n\n        curproposal.voterInfo[msg.sender] = Voter({\n            hasVoted: true,\n            vote: _vote,\n            weight: weight\n        });\n\n        curproposal.voters.push(msg.sender);\n\n        emit VoteCasted(msg.sender, _ProposalID, weight);\n    }\n\n    /**\n    * @dev checks if a user has voted\n    * @param _ProposalID the proposal id\n    * @param _user the address of a voter\n    */\n    function userHasVoted(uint _ProposalID, address _user)\n        internal\n        view\n        validProposal(_ProposalID)\n        returns (bool)\n    {\n        return (Proposals[_ProposalID].voterInfo[_user].hasVoted);\n    }\n\n    /**\n    * @dev checks if a proposal id is valid\n    * @param _ProposalID the proposal id\n    */\n    modifier validProposal(uint _ProposalID) {\n        require(\n            _ProposalID > 0 && _ProposalID <= ProposalCount,\n            \"Not a valid Proposal Id\"\n        );\n        _;\n    }\n\n    /**\n    * @dev returns the square root (in int) of a number\n    * @param x the number (int)\n    */\n    function sqrt(uint x) internal pure returns (uint y) {\n        uint z = (x + 1) / 2;\n        y = x;\n        while (z < y) {\n            y = z;\n            z = (x / z + z) / 2;\n        }\n    }\n\n    /**\n    * @dev minting more tokens for an account\n    */\n    //remove only owner so anyone with ERC721s can mint themselves vote as long as they have the ERC721\n    function mint(address account, uint256 amount) public  {\n        require(account != address(0), \" mint to the zero address\");\n        require(amount >= oneToken, \" Minium vote one token\");\n        require(loyaltyToken.transferFrom(msg.sender,burnAddress,amount),\"Loyalty Token transfer failed\");\n        \n        _totalSupply = _totalSupply.add(amount);\n        _balances[account] = _balances[account].add(amount);\n    }\n\n    /**\n    * @dev returns the balance of an account\n    */\n    function balanceOf(address account) public view returns (uint256) {\n        return _balances[account];\n    }\n\n}\n",
  "sourcePath": "/Users/mcplums/Repos/WildCardsQV/qv_voting/contracts/QVVoting.sol",
  "compiler": {
    "name": "solc",
    "version": "0.5.12+commit.7709ece9.Emscripten.clang"
  },
  "schemaVersion": "3.0.19",
  "updatedAt": "2020-04-24T17:08:34.740Z",
  "networkType": "ethereum",
  "devdoc": {
    "details": "the manager for proposals / votes",
    "methods": {
      "balanceOf(address)": {
        "details": "returns the balance of an account"
      },
      "castVote(uint256,uint256,bool)": {
        "details": "casts a vote.",
        "params": {
          "_ProposalID": "the proposal id",
          "_vote": "true for yes, false for no",
          "numTokens": "number of voice credits"
        }
      },
      "countVotes(uint256)": {
        "details": "counts the votes for a proposal. Returns (yeays, nays)",
        "params": {
          "_ProposalID": "the proposal id"
        }
      },
      "createProposal(string,uint256)": {
        "details": "Creates a new proposal.",
        "params": {
          "_description": "the text of the proposal",
          "_voteExpirationTime": "expiration time in minutes"
        }
      },
      "getProposalExpirationTime(uint256)": {
        "details": "returns a proposal expiration time",
        "params": {
          "_ProposalID": "the proposal id"
        }
      },
      "getProposalStatus(uint256)": {
        "details": "returns the status of a proposal",
        "params": {
          "_ProposalID": "the proposal id"
        }
      },
      "isOwner()": {
        "details": "Returns true if the caller is the current owner."
      },
      "mint(address,uint256)": {
        "details": "minting more tokens for an account"
      },
      "owner()": {
        "details": "Returns the address of the current owner."
      },
      "renounceOwnership()": {
        "details": "Leaves the contract without owner. It will not be possible to call `onlyOwner` functions anymore. Can only be called by the current owner.     * > Note: Renouncing ownership will leave the contract without an owner, thereby removing any functionality that is only available to the owner."
      },
      "setProposalToEnded(uint256)": {
        "details": "sets a proposal to ENDED.",
        "params": {
          "_ProposalID": "the proposal id"
        }
      },
      "setProposalToTally(uint256)": {
        "details": "sets a proposal to TALLY.",
        "params": {
          "_ProposalID": "the proposal id"
        }
      },
      "transferOwnership(address)": {
        "details": "Transfers ownership of the contract to a new account (`newOwner`). Can only be called by the current owner."
      }
    },
    "title": "QVVoting"
  },
  "userdoc": {
    "methods": {}
  }
}